:020000040800F2
:1000000000A00020E5090008490900084F09000880
:10001000550900085B09000861090008000000009C
:100020000000000000000000000000006709000858
:100030007509000800000000830900089109000804
:10004000350A0008350A0008350A0008350A000894
:10005000350A0008350A0008350A0008350A000884
:10006000350A0008350A00089D090008350A00080D
:10007000350A0008350A0008350A0008350A000864
:10008000350A0008350A0008350A0008350A000854
:10009000AD090008350A0008350A0008350A0008CD
:1000A000350A0008350A0008350A0008350A000834
:1000B000350A0008350A0008350A0008350A000824
:1000C000350A0008350A0008350A0008350A000814
:1000D000350A0008350A0008350A0008350A000804
:1000E000350A0008350A0008350A0008350A0008F4
:1000F000350A0008350A0008350A0008350A0008E4
:10010000000000000000000000000000350A0008A8
:10011000350A0008350A0008350A0008350A0008C3
:10012000350A0008350A0008350A0008350A0008B3
:10013000350A0008350A0008000000000000000031
:10014000350A0008350A0008350A000800000000DA
:10015000000000000000000000000000000000009F
:100160000000000000000000350A0008350A000801
:10017000350A000800000000000000000000000038
:0801800000000000350A000830
:1001880010B5054C237833B9044B13B10448AFF3C9
:1001980000800123237010BD7C01002000000000B6
:1001A8002C94000808B5034B1BB103490348AFF36F
:1001B800008008BD00000000800100202C94000889
:1001C80080B586B004AF0346FB710B46BB7113467E
:1001D8007B71FB795B00FB71FB7999B2BB799AB2B1
:1001E8000A230293012301937B1D009301230448F2
:1001F80000F0EAFF034618460837BD4680BD00BF39
:10020800C003002080B586B004AF3A601A460346A2
:10021800FB710B46BB7113467B717B79012B03D9AC
:10022800BB7963F07F03BB71FB795B00FB71FB79E2
:1002380099B2BB7998B27B799BB27A790292019391
:100248003B68009301230246034801F0D1F800BF40
:100258000837BD4680BD00BFC003002080B582B00E
:1002680000AF472220211920FFF7AAFF9822232157
:100278001920FFF7A5FF402225211920FFF7A0FF2D
:10028800102222211920FFF79BFF0723FB7108E0AA
:100298003A1DF97902231920FFF7B4FFFB790133DE
:1002A800FB71FB793F2BF3D900BF00BF0837BD4670
:1002B80080BD000080B582B000AF0346FB80FB889C
:1002C800102B36D11D4B1B8801339AB21B4B1A8059
:1002D8001A4B1B88012B04D14FF48061184800F099
:1002E800B1FE164B1B88322B02D9144B00221A8000
:1002F800144B4AF6AB221A80134B1B881AB2114BC7
:100308005A80114B1B8801339AB20F4B1A800D4B40
:1003180000229A800B4B0022DA800A4B00221A81B5
:1003280006230A4A28211920FFF76CFF084B0122EF
:100338001A7000BF0837BD4680BD00BF9A01002073
:1003480000100048BC0400209C010020C0040020CC
:100358009801002080B582B000AF00F069FB00F082
:1003680049F800F077F900F0A7F800F0E3F808F092
:1003780063FB00F01DF91A4B1B681A68184B1B68C1
:1003880042F001021A60FFF769FF164804F098FC72
:10039800154B1B78002BFBD0124B1B685B6AFB715B
:1003A800FB7903F00103DBB2002B0ED001224FF4DE
:1003B80080510E4800F02EFE00BF0C210C4808F0BA
:1003C800F9FB0346002BF8D105E000224FF48051D9
:1003D800064800F01FFE044B00221A70D8E700BF41
:1003E800C00300207004002098010020001000487D
:1003F800BC04002080B59EB000AF07F1500328224E
:100408000021184609F006F807F13C0300221A609B
:100418005A609A60DA601A613B463C22002118460D
:1004280008F0F8FF03233B654FF4A0237B65002306
:10043800BB6501233B6610237B660223FB664FF4F2
:1004480080333B674FF480137B6707F150031846EE
:1004580003F096F80346002B01D000F081F90F2332
:10046800FB6302233B6400237B644FF48063BB641B
:100478000023FB6407F13C030121184603F088FFC1
:100488000346002B01D000F06BF90A4B3B600023B8
:10049800FB614FF48003BB633B46184604F05EF9EA
:1004A8000346002B01D000F05BF900BF7837BD464A
:1004B80080BD00BF2000020080B500AF1B4B1C4A66
:1004C8001A601A4B40F20B225A60184B00229A60AD
:1004D800164B0122DA60154B00221A61134B0022D9
:1004E8005A61124B00229A61104B0022DA610F4BBD
:1004F80000221A620D4800F0D7FD0346002B01D0F8
:1005080000F02EF90021094801F0B8FA0346002B43
:1005180001D000F025F90021044801F0FAFA034659
:10052800002B01D000F01CF900BF80BDC0030020E3
:100538000054004080B500AF1B4B1C4A1A601A4B90
:100548004FF482725A60184B00229A60164B4FF48F
:100558004072DA60144B00221A61134B00225A6170
:10056800114B4FF400729A610F4B0822DA610E4B5F
:1005780000221A620C4B00225A620B4B00229A622C
:10058800094B0722DA62084B00221A63064B08223D
:100598005A63054804F092FA0346002B01D000F094
:1005A800DFF800BF80BD00BF0C0400200030014010
:1005B80080B588B000AF07F1100300221A605A60B6
:1005C8009A60DA603B1D00221A605A609A60204BDC
:1005D8004FF080421A601E4B00225A601C4B0022CA
:1005E8009A601B4B0122DA60194B00221A61184BE2
:1005F80000229A61164804F00CFB0346002B01D038
:1006080000F0AEF84FF400533B6100237B610023F8
:10061800BB610023FB6107F1100319460C4804F085
:10062800B1FB0346002B01D000F09AF800237B6051
:100638000023FB603B1D1946054804F097FD03465F
:10064800002B01D000F08CF800BF2037BD4680BDDC
:100658007004002080B58AB000AF07F114030022AF
:100668001A605A609A60DA601A613B4B5B693A4AD1
:1006780043F400135361384B5B6903F400133B6187
:100688003B69354B5B69344A43F400235361324B71
:100698005B6903F40023FB60FB682F4B5B692E4A00
:1006A80043F4800353612C4B5B6903F48003BB6004
:1006B800BB68294B5B69284A43F400335361264BD6
:1006C8005B6903F400337B607B68234B5B69224AD8
:1006D80043F480235361204B5B6903F480233B6020
:1006E8003B6800224FF608711C4800F093FC272352
:1006F8007B614FF49013BB610023FB6107F1140386
:100708001946164800F00CFB4FF608737B6101236D
:10071800BB610023FB6100233B6207F11403194608
:100728000E4800F0FDFA10237B614FF48813BB617B
:100738000023FB6107F114031946084800F0F0FA9A
:10074800002200210A2000F0B4FA0A2000F0CDFAB5
:1007580000BF2837BD4680BD001002400010004889
:1007680080B400AF72B600BFFEE7000080B582B06B
:1007780000AF0F4B9B690E4A43F0010393610C4B8A
:100788009B6903F001037B607B68094BDB69084ABE
:1007980043F08053D361064BDB6903F080533B6021
:1007A8003B68072000F07AFA00BF0837BD4680BDD5
:1007B8000010024080B58AB000AF786007F11403DA
:1007C80000221A605A609A60DA601A617B681B68B6
:1007D800174A934227D1174B5B69164A43F4802383
:1007E8005361144B5B6903F480233B613B69C0236D
:1007F8007B611223BB610123FB6103233B6204235A
:100808007B6207F1140319460B4800F089FA094B7B
:10081800DB69084A43F40013D361064BDB6903F430
:100828000013FB60FB6800BF2837BD4680BD00BFD2
:1008380000540040001002400004004880B58AB00F
:1008480000AF786007F1140300221A605A609A60BA
:10085800DA601A617B681B68174A934228D1174BE4
:100868009B69164A43F480539361144B9B6903F4C4
:1008780080533B613B69114B5B69104A43F4003379
:1008880053610E4B5B6903F40033FB60FB68E023A4
:100898007B610223BB610023FB6103233B620523C9
:1008A8007B6207F1140319464FF0904000F038FAC4
:1008B80000BF2837BD4680BD00300140001002400F
:1008C80080B58AB000AF786007F1140300221A607F
:1008D8005A609A60DA601A617B681B68B3F1804FCE
:1008E80028D1164BDB69154A43F00103D361134B3A
:1008F800DB6903F001033B613B69104B5B690F4AFD
:1009080043F4003353610D4B5B6903F40033FB6020
:10091800FB6801237B610223BB610023FB61002389
:100928003B6201237B6207F1140319464FF09040A4
:1009380000F0F6F900BF2837BD4680BD0010024020
:1009480080B400AFFEE780B400AFFEE780B400AF2C
:10095800FEE780B400AFFEE780B400AFFEE780B4E6
:1009680000AF00BFBD465DF8047B704780B400AFA0
:1009780000BFBD465DF8047B704780B400AF00BF80
:10098800BD465DF8047B704780B500AF00F096F86F
:1009980000BF80BD80B500AF102000F06DFB00BF28
:1009A80080BD000080B500AF024801F002FA00BF28
:1009B80080BD00BF6011002080B400AF064BD3F8A3
:1009C8008830054A43F47003C2F8883000BFBD463A
:1009D8005DF8047B704700BF00ED00E0DFF834D01D
:1009E8000D480E490E4A002302E0D458C45004337F
:1009F800C4188C42F9D30B4A0B4C002301E0136056
:100A08000432A242FBD3FFF7D7FF08F0DFFCFFF761
:100A1800A1FCFEE700A00020000000207C010020CF
:100A2800C09400087C0100204C140020FEE7000060
:100A380080B500AF084B1B68074A43F010031360EA
:100A4800032000F02BF9002000F008F8FFF78EFED5
:100A58000023184680BD00BF0020024080B582B048
:100A680000AF7860124B1A68124B1B7819464FF486
:100A78007A73B3FBF1F3B2FBF3F3184600F043F9D2
:100A88000346002B01D001230EE07B680F2B0AD808
:100A9800002279684FF0FF3000F00BF9064A7B68B6
:100AA8001360002300E0012318460837BD4680BDC7
:100AB80000000020080000200400002080B400AFDF
:100AC800064B1B781A46064B1B681344044A1360EE
:100AD80000BFBD465DF8047B704700BF08000020DA
:100AE800C804002080B400AF034B1B681846BD46FD
:100AF8005DF8047B704700BFC804002080B485B04F
:100B080000AF78607B6803F00703FB600C4BDB6881
:100B1800BB60BA684FF6FF031340BB60FB681A025C
:100B2800BB68134343F0BF6343F40033BB60044A1C
:100B3800BB68D36000BF1437BD465DF8047B7047BF
:100B480000ED00E080B400AF044BDB681B0A03F043
:100B580007031846BD465DF8047B704700ED00E0CA
:100B680080B483B000AF0346FB7197F90730002BC0
:100B78000BDBFB7903F01F02074997F907305B0984
:100B8800012000FA02F241F8232000BF0C37BD46CD
:100B98005DF8047B704700BF00E100E080B483B0DB
:100BA80000AF03463960FB7197F90730002B0ADB69
:100BB8003B68DAB20C4997F907301201D2B20B44FC
:100BC80083F800230AE03B68DAB20849FB7903F0AE
:100BD8000F03043B1201D2B20B441A7600BF0C3744
:100BE800BD465DF8047B704700E100E000ED00E0E1
:100BF80080B489B000AFF860B9607A60FB6803F030
:100C08000703FB61FB69C3F10703042B28BF042317
:100C1800BB61FB690433062B02D9FB69033B00E087
:100C280000237B614FF0FF32BB6902FA03F3DA431A
:100C3800BB681A407B699A404FF0FF317B6901FA23
:100C480003F3D9437B680B40134318462437BD464A
:100C58005DF8047B7047000080B582B000AF786013
:100C68007B68013BB3F1807F01D301230FE00A4A7F
:100C78007B68013B53600F214FF0FF30FFF78EFF79
:100C8800054B00229A60044B07221A60002318467D
:100C98000837BD4680BD00BF10E000E080B582B0D7
:100CA80000AF78607868FFF729FF00BF0837BD46B6
:100CB80080BD80B586B000AF0346B9607A60FB732B
:100CC80000237B61FFF73EFF78617A68B96878692D
:100CD800FFF78EFF024697F90F3011461846FFF7C7
:100CE8005DFF00BF1837BD4680BD80B582B000AF3C
:100CF8000346FB7197F907301846FFF731FF00BF2D
:100D08000837BD4680BD80B582B000AF786078688E
:100D1800FFF7A2FF034618460837BD4680BD00000E
:100D280080B487B000AF7860396000237B6154E1FC
:100D38003B681A6801217B6901FA03F31340FB60E1
:100D4800FB68002B00F046813B685B6803F00303F7
:100D5800012B05D03B685B6803F00303022B30D1FD
:100D68007B689B683B617B695B00032202FA03F3A3
:100D7800DB433A6913403B613B68DA687B695B0097
:100D880002FA03F33A6913433B617B683A699A6054
:100D98007B685B683B6101227B6902FA03F3DB43F2
:100DA8003A6913403B613B685B681B0903F0010229
:100DB8007B6902FA03F33A6913433B617B683A693A
:100DC8005A603B685B6803F00303032B17D07B680A
:100DD800DB683B617B695B00032202FA03F3DB43B8
:100DE8003A6913403B613B689A687B695B0002FA89
:100DF80003F33A6913433B617B683A69DA603B68FD
:100E08005B6803F00303022B23D17B69DA087B6854
:100E1800083253F822303B617B6903F007039B00DB
:100E28000F2202FA03F3DB433A6913403B613B6844
:100E38001A697B6903F007039B0002FA03F33A6916
:100E480013433B617B69DA087B680832396943F8E8
:100E580022107B681B683B617B695B00032202FAF6
:100E680003F3DB433A6913403B613B685B6803F07B
:100E780003027B695B0002FA03F33A6913433B619F
:100E88007B683A691A603B685B6803F44033002B5F
:100E980000F0A080584B9B69574A43F001039361C7
:100EA800554B9B6903F00103BB60BB68534A7B69E0
:100EB8009B08023352F823303B617B6903F003033C
:100EC8009B000F2202FA03F3DB433A6913403B61AC
:100ED8007B68B3F1904F19D07B68494A934213D08D
:100EE8007B68484A93420DD07B68474A934207D0B3
:100EF8007B68464A934201D1042308E0052306E0B3
:100F0800032304E0022302E0012300E000237A69BE
:100F180002F00302920093403A6913433B61374958
:100F28007B699B0802333A6941F82320384B1B68D8
:100F38003B61FB68DB433A6913403B613B685B6894
:100F480003F48033002B03D03A69FB6813433B61F9
:100F58002F4A3B6913602E4B5B683B61FB68DB43A0
:100F68003A6913403B613B685B6803F40033002B2C
:100F780003D03A69FB6813433B61254A3B695360D8
:100F8800234B9B683B61FB68DB433A6913403B6139
:100F98003B685B6803F48013002B03D03A69FB6855
:100FA80013433B611A4A3B699360194BDB683B6109
:100FB800FB68DB433A6913403B613B685B6803F4B9
:100FC8000013002B03D03A69FB6813433B61104AB6
:100FD8003B69D3607B6901337B613B681A687B6935
:100FE80022FA03F3002B7FF4A3AE00BF00BF1C3727
:100FF800BD465DF8047B70470010024000000140C8
:101008000004004800080048000C00480010004890
:101018000004014080B483B000AF78600B467B8049
:1010280013467B707B78002B03D07A887B689A61A3
:1010380002E07A887B689A6200BF0C37BD465DF88B
:10104800047B704780B485B000AF78600B467B8026
:101058007B685B69FB607A88FB6813401A04FB684D
:10106800D9437B880B401A437B689A6100BF1437C9
:10107800BD465DF8047B704780B582B000AF03467B
:10108800FB80084B5A69FB881340002B06D0054AA1
:10109800FB885361FB881846FFF70CF900BF083737
:1010A800BD4680BD0004014080B582B000AF7860C5
:1010B8007B68002B01D1012381E07B6893F84130E4
:1010C800DBB2002B06D17B68002283F840207868C9
:1010D800FFF770FB7B68242283F841207B681B683C
:1010E8001A687B681B6822F001021A607B685A68DC
:1010F8007B681B6822F070621A617B681B689A68BB
:101108007B681B6822F400429A607B68DB68012BCD
:1011180007D17B689A687B681B6842F400429A6032
:1011280006E07B689A687B681B6842F404429A6010
:101138007B68DB68022B04D17B681B684FF4006274
:101148005A607B681B685B687A68126843F00073B2
:1011580043F4004353607B681B68DA687B681B684C
:1011680022F40042DA607B681A697B685B6942EAAC
:1011780003017B689B691A027B681B680A43DA6073
:101188007B68D9697B681A6A7B681B680A431A609E
:101198007B681B681A687B681B6842F001021A604A
:1011A8007B6800225A647B68202283F841207B6890
:1011B80000221A637B68002283F842200023184625
:1011C8000837BD4680BD000080B588B002AFF86022
:1011D800084611461A4603467B810B463B81134657
:1011E800FB80FB6893F84130DBB2202B40F0F9809C
:1011F8003B6A002B02D0BB8C002B05D1FB684FF457
:1012080000725A640123EDE0FB6893F84030012B2B
:1012180001D10223E6E0FB68012283F84020FFF7B2
:1012280061FC78617B690093192301224FF4004126
:10123800F86800F0C3FA0346002B01D00123D1E07F
:10124800FB68212283F84120FB68402283F8422072
:10125800FB6800225A64FB683A6A5A62FB68BA8CD7
:101268005A85FB6800225A63F8883A8979897B692C
:101278000193BB6A00930346F86800F0D3F903466C
:10128800002B05D0FB68002283F840200123A9E049
:10129800FB685B8D9BB2FF2B0ED9FB68FF221A857A
:1012A800FB681B8DDAB27989002300934FF08073B5
:1012B800F86800F0B5FB0FE0FB685B8D9AB2FB683D
:1012C8001A85FB681B8DDAB27989002300934FF0E9
:1012D8000073F86800F0A4FB7A69B96AF86800F04E
:1012E800ADFA0346002B01D001237BE0FB685B6A63
:1012F8001A78FB681B689A62FB685B6A5A1CFB6871
:101308005A62FB685B8D9BB2013B9AB2FB685A85B7
:10131800FB681B8D013B9AB2FB681A85FB685B8DE5
:101328009BB2002B34D0FB681B8D002B30D17B691E
:101338000093BB6A00228021F86800F03FFA034658
:10134800002B01D001234DE0FB685B8D9BB2FF2B86
:101358000ED9FB68FF221A85FB681B8DDAB27989E2
:10136800002300934FF08073F86800F059FB0FE0FA
:10137800FB685B8D9AB2FB681A85FB681B8DDAB235
:101388007989002300934FF00073F86800F048FB58
:10139800FB685B8D9BB2002B9ED17A69B96AF868AD
:1013A80000F08CFA0346002B01D001231AE0FB68F9
:1013B8001B682022DA61FB681B685968FB681A6899
:1013C8000A4B0B405360FB68202283F84120FB68DE
:1013D800002283F84220FB68002283F84020002383
:1013E80000E0022318461837BD4680BD00E800FE1D
:1013F80080B588B002AFF860084611461A46034621
:101408007B810B463B811346FB80FB6893F8413098
:10141800DBB2202B40F0FD803B6A002B02D0BB8C56
:10142800002B05D1FB684FF400725A640123F1E0E8
:10143800FB6893F84030012B01D10223EAE0FB68F6
:10144800012283F84020FFF74DFB78617B69009308
:10145800192301224FF40041F86800F0AFF9034660
:10146800002B01D00123D5E0FB68222283F841201C
:10147800FB68402283F84220FB6800225A64FB681C
:101488003A6A5A62FB68BA8C5A85FB6800225A632A
:10149800F8883A8979897B690193BB6A0093034686
:1014A800F86800F013F90346002B05D0FB6800220A
:1014B80083F840200123ADE0FB685B8D9BB2FF2BD6
:1014C8000ED9FB68FF221A85FB681B8DDAB2798971
:1014D800524B00934FF08073F86800F0A1FA0FE0C8
:1014E800FB685B8D9AB2FB681A85FB681B8DDAB2C4
:1014F80079894A4B00934FF00073F86800F090FA2E
:101508007B690093BB6A00220421F86800F056F951
:101518000346002B01D001237CE0FB681B685A6A54
:10152800FB685B6AD2B21A70FB685B6A5A1CFB687C
:101538005A62FB681B8D013B9AB2FB681A85FB68EF
:101548005B8D9BB2013B9AB2FB685A85FB685B8D49
:101558009BB2002B34D0FB681B8D002B30D17B69EC
:101568000093BB6A00228021F86800F027F903463F
:10157800002B01D001234DE0FB685B8D9BB2FF2B54
:101588000ED9FB68FF221A85FB681B8DDAB27989B0
:10159800002300934FF08073F86800F041FA0FE0E1
:1015A800FB685B8D9AB2FB681A85FB681B8DDAB203
:1015B8007989002300934FF00073F86800F030FA3F
:1015C800FB685B8D9BB2002B9AD17A69B96AF8687F
:1015D80000F074F90346002B01D001231AE0FB68E0
:1015E8001B682022DA61FB681B685968FB681A6867
:1015F8000B4B0B405360FB68202283F84120FB68AB
:10160800002283F84220FB68002283F84020002350
:1016180000E0022318461837BD4680BD002400802C
:1016280000E800FE80B586B002AFF86008461146B3
:101638001A4603467B810B463B811346FB80FB8899
:10164800DAB27989204B00934FF08073F86800F084
:10165800E7F9FA69B969F86800F0F0F80346002B71
:1016680001D001232CE0FB88012B05D13B89DAB29C
:10167800FB681B689A6215E03B891B0A9BB2DAB2C9
:10168800FB681B689A62FA69B969F86800F0D6F8CD
:101698000346002B01D0012312E03B89DAB2FB6834
:1016A8001B689A62FB690093BB6900228021F86875
:1016B80000F084F80346002B01D0012300E000234A
:1016C80018461037BD4680BD0020008080B586B022
:1016D80002AFF860084611461A4603467B810B465E
:1016E8003B811346FB80FB88DAB27989204B009353
:1016F8000023F86800F094F9FA69B969F86800F00D
:101708009DF80346002B01D001232CE0FB88012B18
:1017180005D13B89DAB2FB681B689A6215E03B8900
:101728001B0A9BB2DAB2FB681B689A62FA69B9694C
:10173800F86800F083F80346002B01D0012312E07B
:101748003B89DAB2FB681B689A62FB690093BB6944
:1017580000224021F86800F031F80346002B01D040
:10176800012300E0002318461037BD4680BD00BFA6
:101778000020008080B483B000AF78607B681B686D
:101788009B6903F00203022B03D17B681B680022CC
:101798009A627B681B689B6903F00103012B07D0E1
:1017A8007B681B689A697B681B6842F001029A6132
:1017B80000BF0C37BD465DF8047B704780B584B028
:1017C80000AFF860B9603B601346FB7122E03B68EC
:1017D800B3F1FF3F1ED0FFF785F90246BB69D31A64
:1017E8003A689A4202D33B68002B13D1FB685B6CC2
:1017F80043F02002FB685A64FB68202283F84120EA
:10180800FB68002283F84220FB68002283F840200E
:1018180001230FE0FB681B689A69BB681340BA682C
:101828009A420CBF01230023DBB21A46FB799A4285
:10183800CDD0002318461037BD4680BD80B584B092
:1018480000AFF860B9607A602CE07A68B968F86827
:1018580000F070F80346002B01D001232AE0BB6892
:10186800B3F1FF3F1ED0FFF73DF902467B68D31A5C
:10187800BA689A4202D3BB68002B13D1FB685B6C31
:1018880043F02002FB685A64FB68202283F8412059
:10189800FB68002283F84220FB68002283F840207E
:1018A800012307E0FB681B689B6903F00203022B16
:1018B800CBD1002318461037BD4680BD80B584B013
:1018C80000AFF860B9607A6028E07A68B968F868AB
:1018D80000F030F80346002B01D0012326E0FFF783
:1018E80001F902467B68D31ABA689A4202D3BB68E8
:1018F800002B13D1FB685B6C43F02002FB685A6431
:10190800FB68202283F84120FB68002283F84220EC
:10191800FB68002283F84020012307E0FB681B686E
:101928009B6903F02003202BCFD1002318461037E2
:10193800BD4680BD80B584B000AFF860B9607A60FC
:10194800FB681B689B6903F01003102B61D1FB68CF
:101958001B685B6803F00073B3F1007F2BD0FB6852
:101968001B685A68FB681B6842F480425A6022E090
:10197800BB68B3F1FF3F1ED0FFF7B4F802467B689F
:10198800D31ABA689A4202D3BB68002B13D1FB68FA
:101998005B6C43F02002FB685A64FB68202283F8E2
:1019A8004120FB68002283F84220FB68002283F86C
:1019B800402001232EE0FB681B689B6903F020038D
:1019C800202BD5D1FB681B681022DA61FB681B68E5
:1019D8002022DA61F868FFF7CDFEFB681B685968BA
:1019E800FB681A680D4B0B405360FB685B6C43F057
:1019F8000402FB685A64FB68202283F84120FB68D4
:101A0800002283F84220FB68002283F8402001234B
:101A180000E0002318461037BD4680BD00E800FEF0
:101A280080B485B000AFF8607B600B467B811346BD
:101A38007B72FB681B685A68BB695B0D03F48061A5
:101A48000D4B0B43DB4302EA03017B89C3F3090215
:101A58007B7A1B0403F47F031A437B681A43BB6930
:101A68001A43FB681B680A435A6000BF1437BD4617
:101A78005DF8047B704700BFFF63FF0380B483B049
:101A880000AF786039607B6893F84130DBB2202B77
:101A980038D17B6893F84030012B01D1022332E022
:101AA8007B68012283F840207B68242283F8412048
:101AB8007B681B681A687B681B6822F001021A6041
:101AC8007B681B681A687B681B6822F480521A605E
:101AD8007B681B6819687B681B683A680A431A6048
:101AE8007B681B681A687B681B6842F001021A60F1
:101AF8007B68202283F841207B68002283F84020FD
:101B0800002300E0022318460C37BD465DF8047B2D
:101B1800704780B485B000AF786039607B6893F80F
:101B28004130DBB2202B39D17B6893F84030012B50
:101B380001D1022333E07B68012283F840207B68CF
:101B4800242283F841207B681B681A687B681B681D
:101B580022F001021A607B681B681B68FB60FB6847
:101B680023F47063FB603B681B02FA681343FB6055
:101B78007B681B68FA681A607B681B681A687B6850
:101B88001B6842F001021A607B68202283F841201A
:101B98007B68002283F84020002300E002231846D7
:101BA8001437BD465DF8047B7047F0B58BB006AFBF
:101BB80078607B68002B01D10123D0E07B6893F823
:101BC800A932DBB2002B06D17B68002283F8A82259
:101BD800786807F025F97B68032283F8A9227B68D7
:101BE8001B68184603F059FB0023FB734CE0FB7B92
:101BF80079685A1C13469B001344DB000B440133DD
:101C080001221A70FB7B79685A1C13469B00134407
:101C1800DB000B44FA7B1A70FA7BFB7B98B279687D
:101C280013469B001344DB000B44363302461A80EC
:101C3800FB7B79685A1C13469B001344DB000B445A
:101C4800033300221A70FA7B796813469B00134409
:101C5800DB000B44383300221A60FA7B796813469C
:101C68009B001344DB000B443C3300221A60FA7BD0
:101C7800796813469B001344DB000B444033002271
:101C88001A60FB7B0133FB73FA7B7B685B689A42C3
:101C9800ADD30023FB7344E0FA7B796813469B00BD
:101CA8001344DB000B4403F2691300221A70FA7B19
:101CB800796813469B001344DB000B4403F5B473A7
:101CC800FA7B1A70FA7B796813469B001344DB0091
:101CD8000B4403F26B1300221A70FA7B79681346DF
:101CE8009B001344DB000B4403F5BC7300221A600D
:101CF800FA7B796813469B001344DB000B4403F519
:101D0800BE7300221A60FA7B796813469B0013445D
:101D1800DB000B4403F5C07300221A60FB7B013320
:101D2800FB73FA7B7B685B689A42B5D37B681B6858
:101D38003B607E686D4606F110040FCC0FC5236822
:101D48002B60331D0ECB386803F0C2FA7B68002283
:101D580083F824207B68012283F8A92200231846EF
:101D68001437BD46F0BD80B582B000AF78607B689F
:101D780093F8A832012B01D1022316E07B680122D7
:101D880083F8A8227B681B68184603F06FFA0121C4
:101D9800786807F0E3FA7B681B68184605F020FAB4
:101DA8007B68002283F8A822002318460837BD461E
:101DB80080BD80B582B000AF78607B681B6818462C
:101DC80005F019FA034603F40043B3F5004F02D1B6
:101DD800786800F0F6FA7B681B68184605F00BFA7D
:101DE800034603F48063B3F5806F12D17B681B68E8
:101DF800B3F844309AB27B681B6822F4806292B2CE
:101E0800A3F84420786807F0ACF80021786800F05F
:101E1800C7F87B681B68184605F0EDF9034603F41C
:101E28008043B3F5804F0BD17B681B68B3F844300F
:101E38009AB27B681B6822F4804292B2A3F84420CD
:101E48007B681B68184605F0D6F9034603F400536F
:101E5800B3F5005F0BD17B681B68B3F844309AB2C6
:101E68007B681B6822F4005292B2A3F844207B6876
:101E78001B68184605F0BFF9034603F48053B3F511
:101E8800805F26D17B681B68B3F840309AB27B68C4
:101E98001B6822F0040292B2A3F840207B681B68FA
:101EA800B3F840309AB27B681B6822F0080292B2FD
:101EB800A3F84020786807F08DF87B681B68B3F8B2
:101EC80044309AB27B681B6822F4805292B2A3F81D
:101ED80044207B681B68184605F08DF9034603F417
:101EE8000063B3F5006F26D17B681B68B3F84030F8
:101EF8009AB27B681B6842F0080292B2A3F84020AD
:101F08007B681B68B3F844309AB27B681B6822F47C
:101F1800006292B2A3F844207B681B68B3F8403093
:101F28009AB27B681B6842F0040292B2A3F8402080
:101F3800786807F035F87B681B68184605F05BF988
:101F4800034603F40073B3F5007F0ED17B681B686A
:101F5800B3F844309AB27B681B6822F4007292B2DC
:101F6800A3F84420786806F0EEFF7B681B681846E3
:101F780005F041F9034603F48073B3F5807F0BD174
:101F88007B681B68B3F844309AB27B681B6822F4FC
:101F9800807292B2A3F8442000BF0837BD4680BDC6
:101FA80080B582B000AF78600B46FB707B6893F811
:101FB800A832012B01D1022313E07B68012283F8A8
:101FC800A8227B68FA7883F824207B681B68FA7853
:101FD8001146184605F0F0F87B68002283F8A8221D
:101FE800002318460837BD4680BD80B584B000AFD1
:101FF8007860084611461A460346FB700B463B803C
:102008001346BB700023FB7297F90330002B0EDADE
:10201800FB7803F007035A1C13469B001344DB00AC
:102028007A681344FB60FB6801225A700EE0FB7863
:1020380003F0070213469B001344DB0003F5B47357
:102048007A681344FB60FB6800225A70FB7803F03F
:102058000703DAB2FB681A703A88FB681A61FB68F2
:10206800BA78DA70FB685B78002B04D0FB681B78C1
:102078009AB2FB68DA81BB78022B02D1FB68002296
:102088001A717B6893F8A832012B01D102230EE064
:102098007B68012283F8A8227B681B68F9681846C8
:1020A80003F038F97B68002283F8A822FB7A1846E7
:1020B8001037BD4680BD80B584B000AF78600B4650
:1020C800FB7097F90330002B0EDAFB7803F0070357
:1020D8005A1C13469B001344DB007A681344FB60C8
:1020E800FB6801225A700EE0FB7803F007021346E2
:1020F8009B001344DB0003F5B4737A681344FB6058
:10210800FB6800225A70FB7803F00703DAB2FB6819
:102118001A707B6893F8A832012B01D102230EE0D4
:102128007B68012283F8A8227B681B68F968184637
:1021380003F084FC7B68002283F8A8220023184659
:102148001037BD4680BD80B586B000AFF8607A60B4
:102158003B600B46FB72FB7A03F0070213469B00B9
:102168001344DB0003F5B473FA6813447B617B699D
:102178007A685A617B693A689A617B690022DA61F8
:102188007B6900225A70FB7A03F00703DAB27B6995
:102198001A70FB7A03F00703002B06D1FB681B6853
:1021A8007969184603F037FE05E0FB681B68796912
:1021B800184603F030FE002318461837BD4680BD88
:1021C80080B483B000AF78600B46FB70FB7803F0F7
:1021D8000702796813469B001344DB000B4403F5A0
:1021E800C2731B6818460C37BD465DF8047B704700
:1021F80080B586B000AFF8607A603B600B46FB7232
:10220800FB7A03F007035A1C13469B001344DB00B8
:10221800FA6813447B617B697A685A617B693A681A
:102228009A617B69012283F824207B693A681A62E3
:102238007B690022DA617B6901225A70FB7A03F01C
:102248000703DAB27B691A70FB7A03F00703002BE5
:1022580006D1FB681B687969184603F0DCFD05E0C8
:10226800FB681B687969184603F0D5FD00231846FA
:102278001837BD4680BD80B584B000AF78600B4686
:10228800FB70FB7803F007027B685B689A4201D910
:1022980001233EE097F90330002B0EDAFB7803F0B8
:1022A80007035A1C13469B001344DB007A68134447
:1022B800FB60FB6801225A700CE0FA7813469B0019
:1022C8001344DB0003F5B4737A681344FB60FB68BE
:1022D80000225A70FB6801229A70FB7803F007030A
:1022E800DAB2FB681A707B6893F8A832012B01D127
:1022F80002230EE07B68012283F8A8227B681B6812
:10230800F968184604F059FE7B68002283F8A82271
:10231800002318461037BD4680BD80B584B000AF95
:1023280078600B46FB70FB7803F00F027B685B68F4
:102338009A4201D9012340E097F90330002B0EDAC5
:10234800FB7803F007035A1C13469B001344DB0079
:102358007A681344FB60FB6801225A700EE0FB7830
:1023680003F0070213469B001344DB0003F5B47324
:102378007A681344FB60FB6800225A70FB680022ED
:102388009A70FB7803F00703DAB2FB681A707B686F
:1023980093F8A832012B01D102230EE07B680122B9
:1023A80083F8A8227B681B68F968184604F056FE73
:1023B8007B68002283F8A822002318461037BD4600
:1023C80080BD80B596B000AF7860A9E37B681B68D4
:1023D800B3F84430A7F85630B7F85630DBB203F0FC
:1023E8000F0387F8553097F85530002B40F064817B
:1023F800B7F8563003F01003002B52D17B681B68E6
:102408001B889BB223F4E14323F07003FB817B68B4
:102418001A68FB896FEA43436FEA53439BB2138000
:102428007B682833FB647B681B68B3F850309BB229
:102438001A46FB6C1B78DB00134402335B007A6896
:102448001268134403F580631B88C3F30902FB6C0D
:10245800DA61FB6C5A69FB6CDB691A44FB6C5A61E4
:102468000021786806F055FD7B6893F82430DBB2CC
:10247800002B00F05583FB6C9B69002B40F05083C8
:102488007B6893F82430DBB263F07F03DAB27B68B1
:102498001B6892B2A3F84C207B68002283F82420A2
:1024A8003EE37B6803F5B473FB647B681B681B8899
:1024B800A7F85230B7F8523003F40063002B34D039
:1024C8007B681B68B3F850309BB21A46FB6C1B78CC
:1024D800DB00134406335B007A681268134403F583
:1024E80080631B88C3F30902FB6CDA617B68186898
:1024F8007B6803F52C71FB6CDA88FB6CDB699BB29B
:1025080004F0CFFE7B681B681B889AB240F68F7375
:1025180013403B827B681B683A8A42F0800292B281
:102528001A80786806F0C8FCFAE2B7F95230002B36
:1025380080F2F6827B681B681B889AB240F68F731C
:102548001340FB837B681B68FA8B42F0800292B2CF
:102558001A807B681B68B3F850309BB21A46FB6C34
:102568001B78DB00134406335B007A681268134457
:1025780003F580631B88C3F30902FB6CDA61FB6C0B
:10258800DB69002B19D0FB6C5B69002B15D07B68CD
:102598001868FB6C5969FB6CDA88FB6CDB699BB2C9
:1025A80004F07FFEFB6C5A69FB6CDB691A44FB6C18
:1025B8005A610021786806F091FC7B681B681B88CB
:1025C8009BB203F40063002B40F0AA827B681B686F
:1025D800BB617B681B68B3F850309BB21A46BB6975
:1025E8001344BB61BB6903F20C437B61FB6C1B6941
:1025F800002B12D17B691B889BB223F4F8439AB253
:102608007B691A807B691B889BB26FEA43436FEA38
:1026180053439AB27B691A802FE0FB6C1B693E2BEF
:1026280013D8FB6C1B695B087B64FB6C1B6903F0AC
:102638000103002B02D07B6C01337B647B6C9BB263
:102648009B029AB27B691A8017E0FB6C1B695B09D5
:102658007B64FB6C1B6903F01F03002B02D17B6CAE
:10266800013B7B647B6C9BB29B029BB26FEA43434A
:102678006FEA53439AB27B691A807B681B681B8890
:102688009BB223F4804323F070037B827B8A83F41C
:1026980080537B827B8A83F400537B827B681A6831
:1026A8007B8A43F07F4343F47F0343F4004343F0C2
:1026B80080039BB2138033E27B681B681A4697F845
:1026C80055309B0013441B88A7F85230B7F9523095
:1026D800002B80F2FC807B681B681A4697F85530FF
:1026E8009B0013441B889AB240F68F731340A7F8D7
:1026F80050307B681B681A4697F855309B00134486
:10270800B7F8502042F0800292B21A8097F855200C
:1027180013469B001344DB0003F5B4737A68134433
:10272800FB64FB6C1B7B002B25D17B681B68B3F813
:1027380050309BB21A46FB6C1B78DB0013440633FF
:102748005B007A681268134403F580631B88C3F33F
:102758000903A7F84830B7F84830002B00F09280FA
:102768007B681868FB6C5969FB6CDA88B7F84830E5
:1027780004F097FD86E0FB6CDB78022B0AD1B7F8F2
:1027880052301A46F96C786800F0D8F90346A7F871
:10279800483077E07B681B681A46FB6C1B789B0007
:1027A80013441B889BB223F4E04323F07003A7F87B
:1027B8004A307B681B681A46FB6C1B789B001A44DE
:1027C800B7F84A3043F07F4343F47F0343F40043B0
:1027D80043F0C0039BB213807B681B681A46FB6CEE
:1027E8001B789B0013441B889BB203F48043002B87
:1027F80024D07B681B68B3F850309BB21A46FB6C38
:102808001B78DB00134402335B007A6812681344B8
:1028180003F580631B88C3F30903A7F84830B7F8AA
:102828004830002B2ED07B681868FB6C5969FB6C0C
:102838001A89B7F8483004F034FD23E07B681B6838
:10284800B3F850309BB21A46FB6C1B78DB0013447C
:1028580006335B007A681268134403F580631B88AB
:10286800C3F30903A7F84830B7F84830002B09D05C
:102878007B681868FB6C5969FB6C5A89B7F8483053
:1028880004F00FFDFB6CDA69B7F848301A44FB6CAA
:10289800DA61FB6C5A69B7F848301A44FB6C5A6124
:1028A800FB6C9B69002B05D0B7F84820FB6C1B69B3
:1028B8009A4206D2FB6C1B781946786806F00EFB24
:1028C80005E07B681B68F96C184603F0A4FAB7F8B2
:1028D800523003F08003002B00F0228197F8553026
:1028E8005A1C13469B001344DB007A681344FB64AC
:1028F8007B681B681A4697F855309B0013441B8861
:102908009BB223F4E14323F07003A7F842307B68BD
:102918001B681A4697F855309B001A44B7F842309E
:102928006FEA43436FEA53439BB21380FB6CDB7837
:10293800022B00F09D80FB6C00229A61B7F85230A0
:1029480003F04003002B46D0FB6C5B78002B26D1AC
:102958007B681B687B627B681B68B3F850309BB24E
:102968001A467B6A13447B62FB6C1B781A017B6AEC
:10297800134403F204433B623B6A1B889BB223F473
:10298800F8439AB23B6A1A803B6A1B889BB26FEA8B
:1029980043436FEA53439AB23B6A1A8061E0FB6C87
:1029A8005B78012B5DD17B681B68FB627B681B68C9
:1029B800B3F850309BB21A46FB6A1344FB62FB6CB7
:1029C8001B781A01FB6A134403F20443BB62BB6A17
:1029D80000221A8045E07B681B68FB63FB6C5B7810
:1029E800002B26D17B681B687B637B681B68B3F868
:1029F80050309BB21A467B6B13447B63FB6C1B788D
:102A08001A017B6B134403F20C433B633B6B1B883B
:102A18009BB223F4F8439AB23B6B1A803B6B1B883A
:102A28009BB26FEA43436FEA53439AB23B6B1A80F7
:102A380017E0FB6C5B78012B13D17B681B68B3F83C
:102A480050309BB21A46FB6B1344FB63FB6C1B783C
:102A58001A01FB6B134403F20C43BB63BB6B0022EC
:102A68001A80FB6C1B781946786806F052FA57E012
:102A7800FB6CDB78022B4CD1B7F8523003F480732F
:102A8800002B46D17B681B68B3F850309BB21A46BE
:102A9800FB6C1B78DB00134402335B007A68126816
:102AA800134403F580631B88C3F30903A7F8403078
:102AB800FB6C9A69B7F840309A4207D9FB6C9A695F
:102AC800B7F84030D21AFB6C9A6102E0FB6C002226
:102AD8009A61FB6C9B69002B06D1FB6C1B7819462D
:102AE800786806F016FA1BE0FB6C5A69B7F84030B4
:102AF8001A44FB6C5A61FB6CDA69B7F840301A4427
:102B0800FB6CDA617B681B68F96C184603F083F983
:102B180006E0B7F852301A46F96C786800F01BF9ED
:102B28007B681B68B3F844309BB21BB2002BFFF6DE
:102B38004DAC002318465837BD4680BD80B588B0D7
:102B480000AFF860B9601346FB80FB8803F480434C
:102B5800002B7ED0FB681B68B3F850309BB21A4636
:102B6800BB681B78DB00134402335B00FA68126809
:102B7800134403F580631B88C3F309037B83BB6895
:102B88009A697B8B9A4206D3BB689A697B8BD21A67
:102B9800BB689A6102E0BB6800229A61BB689B69C6
:102BA800002B23D1FB681B681A46BB681B789B0067
:102BB80013441B889BB223F4804323F070033B83A8
:102BC8003B8B83F400533B83FB681B681A46BB6846
:102BD8001B789B001A443B8B43F07F4343F47F03ED
:102BE80043F4004343F080039BB21380FB8803F057
:102BF8004003002B1FD0FB681B681A46BB681B7874
:102C08009B0013441B889BB223F4E04323F070031A
:102C1800FB82FB681B681A46BB681B789B001A443A
:102C2800FB8A43F07F4343F47F0343F4004343F0BC
:102C3800C0039BB213807B8B002B00F08780FB685E
:102C48001868BB685969BB681A897B8B04F029FB33
:102C58007CE0FB681B68B3F850309BB21A46BB682F
:102C68001B78DB00134406335B00FA6812681344D0
:102C780003F580631B88C3F309037B83BB689A69E8
:102C88007B8B9A4206D3BB689A697B8BD21ABB6846
:102C98009A6102E0BB6800229A61BB689B69002BBD
:102CA80023D1FB681B681A46BB681B789B0013443A
:102CB8001B889BB223F4804323F07003FB83FB8BB8
:102CC80083F40053FB83FB681B681A46BB681B78B8
:102CD8009B001A44FB8B43F07F4343F47F0343F488
:102CE800004343F080039BB21380FB8803F040034A
:102CF800002B1FD1FB681B681A46BB681B789B001A
:102D080013441B889BB223F4E04323F07003BB8376
:102D1800FB681B681A46BB681B789B001A44BB8B70
:102D280043F07F4343F47F0343F4004343F0C0037D
:102D38009BB213807B8B002B08D0FB681868BB689C
:102D48005969BB685A897B8B04F0ABFA7B8B1846B0
:102D58002037BD4680BD80B5A2B000AFF860B9602D
:102D68001346FB80FB8803F04003002B00F0C7816B
:102D7800FB681B68B3F850309BB21A46BB681B78D7
:102D8800DB00134402335B00FA681268134403F54E
:102D980080631B88C3F30903A7F84E30BB689A69A0
:102DA800B7F84E309A4207D9BB689A69B7F84E30DF
:102DB800D21ABB689A6102E0BB6800229A61BB68BC
:102DC8009B69002B40F0B980BB685B78002B26D14B
:102DD800FB681B68BB62FB681B68B3F850309BB28A
:102DE8001A46BB6A1344BB62BB681B781A01BB6AEC
:102DF800134403F204437B627B6A1B889BB223F46F
:102E0800F8439AB27B6A1A807B6A1B889BB26FEA86
:102E180043436FEA53439AB27B6A1A801AE0BB684D
:102E28005B78012B16D1FB681B683B63FB681B684A
:102E3800B3F850309BB21A463B6B13443B63BB68F4
:102E48001B781A013B6B134403F20443FB62FB6AD1
:102E580000221A80FB681B683B62BB685B78002B0A
:102E680026D1FB681B68BB61FB681B68B3F8503050
:102E78009BB21A46BB691344BB61BB681B781A0135
:102E8800BB69134403F20C437B617B691B889BB2CB
:102E980023F4F8439AB27B691A807B691B889BB23A
:102EA8006FEA43436FEA53439AB27B691A8017E08B
:102EB800BB685B78012B13D1FB681B68B3F85030F3
:102EC8009BB21A463B6A13443B62BB681B781A01E3
:102ED8003B6A134403F20C43FB61FB6900221A802E
:102EE800BB681B781946F86806F013F8FB8803F4EA
:102EF8008043002B00F0D482FB681B681A46BB682D
:102F08001B789B0013441B889BB223F4E04323F0F7
:102F180070037B82FB681B681A46BB681B789B00A2
:102F28001A447B8A43F07F4343F47F0343F44043CE
:102F380043F080039BB21380B2E2FB8803F4804322
:102F4800002B21D0FB681B681A46BB681B789B00C6
:102F580013441B889BB223F4E04323F07003A7F8C3
:102F68004430FB681B681A46BB681B789B001A44F0
:102F7800B7F8443043F07F4343F47F0343F44043BE
:102F880043F080039BB21380BB6893F82430012B75
:102F980040F08682BB685A69B7F84E301A44BB685D
:102FA8005A61BB68DA69B7F84E301A44BB68DA610F
:102FB800BB681A6ABB681B699A4209D3BB681B695C
:102FC8003B65BB681A6A3B6DD21ABB681A6215E08A
:102FD800BB681B6A002B07D1B7F84E303B65BB684E
:102FE800002283F8242009E0BB68002283F824200B
:102FF800BB681B6A3B65BB6800221A62BB685B78CA
:10300800002B55D1FB681B68BB63FB681B68B3F8D2
:1030180050309BB21A46BB6B1344BB63BB681B782A
:103028001A01BB6B134403F204437B633B6D002B13
:1030380012D17B6B1B889BB223F4F8439AB27B6B4B
:103048001A807B6B1B889BB26FEA43436FEA53433A
:103058009AB27B6B1A8047E03B6D3E2B11D83B6DD3
:103068005B08BB643B6D03F00103002B02D0BB6C13
:103078000133BB64BB6C9BB29B029AB27B6B1A8018
:1030880032E03B6D5B09BB643B6D03F01F03002B13
:1030980002D1BB6C013BBB64BB6C9BB29B029BB275
:1030A8006FEA43436FEA53439AB27B6B1A801BE083
:1030B800BB685B78012B17D1FB681B683B64FB6816
:1030C8001B68B3F850309BB21A463B6C13443B6400
:1030D800BB681B781A013B6C134403F20443FB637F
:1030E8003B6D9AB2FB6B1A80FB681868BB6859691C
:1030F800BB681A893B6D9BB204F08DF8D0E1FB6880
:103108001B68B3F850309BB21A46BB681B78DB00CB
:10311800134406335B00FA681268134403F58063AE
:103128001B88C3F30903A7F84E30BB689A69B7F840
:103138004E309A4207D3BB689A69B7F84E30D21A14
:10314800BB689A6102E0BB6800229A61BB689B6910
:10315800002B40F0C480BB685B78002B26D1FB684D
:103168001B68FB66FB681B68B3F850309BB21A46B5
:10317800FB6E1344FB66BB681B781A01FB6E134495
:1031880003F20443BB66BB6E1B889BB223F4F8436F
:103198009AB2BB6E1A80BB6E1B889BB26FEA434320
:1031A8006FEA53439AB2BB6E1A801AE0BB685B7829
:1031B800012B16D1FB681B687B67FB681B68B3F89B
:1031C80050309BB21A467B6F13447B67BB681B78F1
:1031D8001A017B6F134403F204433B673B6F0022E1
:1031E8001A80FB681B68BB67BB685B78002B2FD114
:1031F800FB681B68C7F88030FB681B68B3F8503061
:103208009BB21A46D7F880301344C7F88030BB68A1
:103218001B781A01D7F88030134403F20C43C7F81F
:103228008430D7F884301B889BB223F4F8439AB2D1
:10323800D7F884301A80D7F884301B889BB26FEA9D
:1032480043436FEA53439AB2D7F884301A8017E0A1
:10325800BB685B78012B13D1FB681B68B3F850304F
:103268009BB21A46BB6F1344BB67BB681B781A0135
:10327800BB6F134403F20C43FB67FB6F00221A80F9
:10328800BB681B781946F86805F043FEFB8803F411
:103298008043002B40F00481FB681B681A46BB681A
:1032A8001B789B0013441B889BB223F4E04323F054
:1032B8007003A7F84630FB681B681A46BB681B7882
:1032C8009B001A44B7F8463043F07F4343F47F032A
:1032D80043F4404343F080039BB21380E0E0FB8853
:1032E80003F48043002B21D1FB681B681A46BB6896
:1032F8001B789B0013441B889BB223F4E04323F004
:103308007003A7F84C30FB681B681A46BB681B782B
:103318009B001A44B7F84C3043F07F4343F47F03D3
:1033280043F4404343F080039BB21380BB6893F897
:103338002430012B40F0B480BB685A69B7F84E308E
:103348001A44BB685A61BB68DA69B7F84E301A4448
:10335800BB68DA61BB681A6ABB681B699A4209D301
:10336800BB681B693B65BB681A6A3B6DD21ABB68B0
:103378001A6215E0BB681B6A002B07D1B7F84E30FC
:103388003B65BB68002283F8242009E0BB681B6A00
:103398003B65BB6800221A62BB68002283F82420C0
:1033A800FB681B687B66BB685B78002B55D1FB68A4
:1033B8001B68FB65FB681B68B3F850309BB21A4664
:1033C800FB6D1344FB65BB681B781A01FB6D134446
:1033D80003F20C43BB653B6D002B12D1BB6D1B8800
:1033E8009BB223F4F8439AB2BB6D1A80BB6D1B885D
:1033F8009BB26FEA43436FEA53439AB2BB6D1A809C
:1034080044E03B6D3E2B11D83B6D5B087B653B6D03
:1034180003F00103002B02D07B6D01337B657B6DCC
:103428009BB29B029AB2BB6D1A802FE03B6D5B0981
:103438007B653B6D03F01F03002B02D17B6D013BC5
:103448007B657B6D9BB29B029BB26FEA43436FEA3D
:1034580053439AB2BB6D1A8018E0BB685B78012BA6
:1034680014D1FB681B68B3F850309BB21A467B6EC8
:1034780013447B66BB681B781A017B6E134403F206
:103488000C433B663B6D9AB23B6E1A80FB6818682A
:10349800BB685969BB685A893B6D9BB203F0BBFE98
:1034A800FB681B681A46BB681B789B0013441B8883
:1034B8009BB223F4E04323F040033B823B8A83F032
:1034C80010033B823B8A83F020033B82FB681B6826
:1034D8001A46BB681B789B001A443B8A43F07F431B
:1034E80043F47F0343F4004343F080039BB213800B
:1034F800002318468837BD4680BD80B487B000AF2A
:10350800F8607B600B467B8113463B817B8903F027
:1035180080039BB2002B0BD07B8903F007035A1C56
:1035280013469B001344DB00FA6813447B6109E0EF
:103538007A8913469B001344DB0003F5B473FA68D9
:1035480013447B613B89002B07D17B6900221A73E6
:103558007B689AB27B69DA800BE07B6901221A7377
:103568007B689AB27B691A817B681B0C9AB27B696B
:103578005A81002318461C37BD465DF8047B704706
:1035880080B5ADF5007D00AF3B1D18603B1D1B6885
:10359800002B02D1012300F0F4BE3B1D1B681B6801
:1035A80003F00103002B00F06A81B34B5B6803F062
:1035B8000C03042B0CD0B04B5B6803F00C03082BF6
:1035C80059D1AD4B5B6803F48033B3F5803F52D1DA
:1035D8004FF40033C7F8F031D7F8F03193FAA3F37A
:1035E800C7F8EC31D7F8EC31B3FA83F3DBB25B09F7
:1035F800DBB243F00103DBB2012B02D19E4B1B6807
:1036080015E04FF40033C7F8E831D7F8E83193FAFA
:10361800A3F3C7F8E4314FF40033C7F8E031D7F823
:10362800E03193FAA3F3C7F8DC31934B5B6A4FF4AC
:103638000032C7F8D821D7F8D82192FAA2F2C7F8F1
:10364800D421D7F8D421B2FA82F2D2B242F02002C1
:10365800D2B202F01F02012101FA02F21340002B3C
:1036680000F00C813B1D1B685B68002B40F0068155
:10367800012300F086BE3B1D1B685B68B3F5803FE5
:1036880006D17D4B1B687C4A43F48033136030E0DD
:103698003B1D1B685B68002B0CD1774B1B68764A77
:1036A80023F480331360744B1B68734A23F480231C
:1036B80013601EE03B1D1B685B68B3F5A02F0CD19F
:1036C8006D4B1B686C4A43F4802313606A4B1B687C
:1036D800694A43F4803313600BE0674B1B68664A02
:1036E80023F480331360644B1B68634A23F48023FC
:1036F8001360614BDB6A23F00F023B1D1B689B685C
:103708005D491343CB623B1D1B685B68002B59D096
:10371800FDF7E8F9C7F8F8010AE0FDF7E3F9024612
:10372800D7F8F831D31A642B02D9032300F029BE45
:103738004FF40033C7F8D031D7F8D03193FAA3F358
:10374800C7F8CC31D7F8CC31B3FA83F3DBB25B09D5
:10375800DBB243F00103DBB2012B02D1464B1B68FD
:1037680015E04FF40033C7F8C831D7F8C83193FAD9
:10377800A3F3C7F8C4314FF40033C7F8C031D7F802
:10378800C03193FAA3F3C7F8BC313B4B5B6A4FF4E3
:103798000032C7F8B821D7F8B82192FAA2F2C7F8D0
:1037A800B421D7F8B421B2FA82F2D2B242F02002A0
:1037B800D2B202F01F02012101FA02F21340002BDB
:1037C800ABD05CE0FDF78EF9C7F8F8010AE0FDF729
:1037D80089F90246D7F8F831D31A642B02D90323A2
:1037E80000F0CFBD4FF40033C7F8B031D7F8B0318F
:1037F80093FAA3F3C7F8AC31D7F8AC31B3FA83F333
:10380800DBB25B09DBB243F00103DBB2012B02D16F
:10381800194B1B6815E04FF40033C7F8A831D7F8E7
:10382800A83193FAA3F3C7F8A4314FF40033C7F8CB
:10383800A031D7F8A03193FAA3F3C7F89C310E4B07
:103848005B6A4FF40032C7F89821D7F8982192FAAA
:10385800A2F2C7F89421D7F89421B2FA82F2D2B230
:1038680042F02002D2B202F01F02012101FA02F254
:103878001340002BABD102E00010024000BF3B1DFB
:103888001B681B6803F00203002B00F06F81D04B0C
:103898005B6803F00C03002B0BD0CD4B5B6803F087
:1038A8000C03082B6CD1CA4B5B6803F48033002BE4
:1038B80066D10223C7F89031D7F8903193FAA3F371
:1038C800C7F88C31D7F88C31B3FA83F3DBB25B09D4
:1038D800DBB243F00103DBB2012B02D1BC4B1B6806
:1038E80013E00223C7F88831D7F8883193FAA3F395
:1038F800C7F884310223C7F88031D7F8803193FAAA
:10390800A3F3C7F87C31B24B5B6A0222C7F878216F
:10391800D7F8782192FAA2F2C7F87421D7F874215F
:10392800B2FA82F2D2B242F02002D2B202F01F0200
:10393800012101FA02F21340002B07D03B1D1B683E
:103948001B69012B02D0012300F01BBDA04B1B6893
:1039580023F0F8023B1D1B685B69F821C7F870115A
:10396800D7F8701191FAA1F1C7F86C11D7F86C115A
:10397800B1FA81F1C9B28B40954913430B60F5E068
:103988003B1D1B681B69002B00F085800123C7F8CD
:103998006831D7F8683193FAA3F3C7F86431D7F8D8
:1039A8006431B3FA83F3DBB203F1845303F5841370
:1039B8009B001A4601231360FDF794F8C7F8F80135
:1039C8000AE0FDF78FF80246D7F8F831D31A022B30
:1039D80002D9032300F0D5BC0223C7F86031D7F819
:1039E800603193FAA3F3C7F85C31D7F85C31B3FAC6
:1039F80083F3DBB25B09DBB243F00103DBB2012BDB
:103A080002D1734B1B6813E00223C7F85831D7F86B
:103A1800583193FAA3F3C7F854310223C7F8503149
:103A2800D7F8503193FAA3F3C7F84C31684B5B6A67
:103A38000222C7F84821D7F8482192FAA2F2C7F81B
:103A48004421D7F84421B2FA82F2D2B242F02002DD
:103A5800D2B202F01F02012101FA02F21340002B38
:103A6800AFD05B4B1B6823F0F8023B1D1B685B69FA
:103A7800F821C7F84011D7F8401191FAA1F1C7F819
:103A88003C11D7F83C11B1FA81F1C9B28B405049C9
:103A980013430B606AE00123C7F83831D7F838318F
:103AA80093FAA3F3C7F83431D7F83431B3FA83F370
:103AB800DBB203F1845303F584139B001A460023F9
:103AC8001360FDF70FF8C7F8F8010AE0FDF70AF8E8
:103AD8000246D7F8F831D31A022B02D9032300F093
:103AE80050BC0223C7F83031D7F8303193FAA3F32A
:103AF800C7F82C31D7F82C31B3FA83F3DBB25B0962
:103B0800DBB243F00103DBB2012B02D1304B1B685F
:103B180013E00223C7F82831D7F8283193FAA3F322
:103B2800C7F824310223C7F82031D7F8203193FA97
:103B3800A3F3C7F81C31264B5B6A0222C7F8182189
:103B4800D7F8182192FAA2F2C7F81421D7F814214D
:103B5800B2FA82F2D2B242F02002D2B202F01F02CE
:103B6800012101FA02F21340002BAFD13B1D1B6863
:103B78001B6803F00803002B00F0DA803B1D1B686C
:103B88009B69002B69D00123C7F81031D7F8103191
:103B980093FAA3F3C7F80C31D7F80C31B3FA83F3CF
:103BA800DBB21A460B4B13449B001A4601231360E1
:103BB800FCF798FFC7F8F8010EE0FCF793FF024600
:103BC800D7F8F831D31A022B06D90323D9E300BF5B
:103BD80000100240208190100223C7F80831D7F85E
:103BE800083193FAA3F3C7F8043107F5807302226A
:103BF8001A6007F580731B6893FAA3F207F1FC03B8
:103C08001A6007F1F80302221A6007F1F8031B682B
:103C180093FAA3F207F1F4031A60A54B5A6A07F165
:103C2800F0030221196007F1F0031B6893FAA3F16E
:103C380007F1EC03196007F1EC031B68B3FA83F38F
:103C4800DBB243F06003DBB203F01F03012101FA8A
:103C580003F31340002BB0D06AE007F1E803012218
:103C68001A6007F1E8031B6893FAA3F207F1E4036B
:103C78001A6007F1E4031B68B3FA83F3DBB21A4650
:103C88008C4B13449B001A4600231360FCF72AFF51
:103C9800C7F8F80109E0FCF725FF0246D7F8F83124
:103CA800D31A022B01D903236BE307F1E0030222A5
:103CB8001A6007F1E0031B6893FAA3F207F1DC032B
:103CC8001A6007F1D80302221A6007F1D8031B68AB
:103CD80093FAA3F207F1D4031A6007F1D003022282
:103CE8001A6007F1D0031B6893FAA3F207F1CC031B
:103CF8001A606F4B5A6A07F1C8030221196007F16D
:103D0800C8031B6893FAA3F107F1C403196007F10C
:103D1800C4031B68B3FA83F3DBB243F06003DBB27E
:103D280003F01F03012101FA03F31340002BB2D162
:103D38003B1D1B681B6803F00403002B00F058812F
:103D4800002387F8FF315A4BDB6903F08053002BBF
:103D580012D1574BDB69564A43F08053D361544B19
:103D6800DB6903F0805207F108031A6007F10803C2
:103D78001B68012387F8FF314F4B1B6803F48073DE
:103D8800002B1AD14C4B1B684B4A43F480731360C9
:103D9800FCF7A8FEC7F8F80109E0FCF7A3FE024605
:103DA800D7F8F831D31A642B01D90323E9E2424B3F
:103DB8001B6803F48073002BEFD03B1D1B68DB6886
:103DC800012B06D13A4B1B6A394A43F001031362AF
:103DD8002FE03B1D1B68DB68002B0CD1344B1B6AA2
:103DE800334A23F001031362314B1B6A304A23F034
:103DF800040313621DE03B1D1B68DB68052B0CD117
:103E08002B4B1B6A2A4A43F004031362284B1B6A94
:103E1800274A43F0010313620BE0254B1B6A244A2F
:103E280023F001031362224B1B6A214A23F0040387
:103E380013623B1D1B68DB68002B6BD0FCF752FE3E
:103E4800C7F8F8010BE0FCF74DFE0246D7F8F83149
:103E5800D31A41F28832934201D9032391E207F140
:103E6800C00302221A6007F1C0031B6893FAA3F289
:103E780007F1BC031A6007F1B80302221A6007F1C0
:103E8800B8031B6893FAA3F207F1B4031A6007F1A9
:103E9800B4031B68B3FA83F3DBB25B09DBB243F00C
:103EA8000203DBB2022B09D1014B1B6A14E000BFED
:103EB80000100240208190100070004007F1B0030C
:103EC80002221A6007F1B0031B6893FAA3F207F104
:103ED800AC031A60BB4B5B6A07F1A80202211160B0
:103EE80007F1A802126892FAA2F107F1A402116080
:103EF80007F1A4021268B2FA82F2D2B242F040028A
:103F0800D2B202F01F02012101FA02F21340002B83
:103F180099D063E0FCF7E6FDC7F8F8010BE0FCF781
:103F2800E1FD0246D7F8F831D31A41F288329342BC
:103F380001D9032325E207F1A00302221A6007F141
:103F4800A0031B6893FAA3F207F19C031A6007F118
:103F5800980302221A6007F198031B6893FAA3F2E8
:103F680007F194031A6007F194031B68B3FA83F30B
:103F7800DBB25B09DBB243F00203DBB2022B02D1F6
:103F8800904B1B6A0DE007F1900302221A6007F1BB
:103F980090031B6893FAA3F207F18C031A60894B0C
:103FA8005B6A07F188020221116007F18802126832
:103FB80092FAA2F107F18402116007F184021268F3
:103FC800B2FA82F2D2B242F04002D2B202F01F023A
:103FD800012101FA02F21340002BA0D197F8FF311A
:103FE800012B05D1774BDB69764A23F08053D361E7
:103FF8003B1D1B68DB69002B00F0C281714B5B68BD
:1040080003F00C03082B00F09C813B1D1B68DB6947
:10401800022B40F0148107F180034FF080721A6080
:1040280007F180031B6893FAA3F207F17C031A6077
:1040380007F17C031B68B3FA83F3DBB203F1845303
:1040480003F584139B001A4600231360FCF74AFD0E
:10405800C7F8F80109E0FCF745FD0246D7F8F83142
:10406800D31A022B01D903238BE107F178034FF010
:1040780000721A6007F178031B6893FAA3F207F13C
:1040880074031A6007F174031B68B3FA83F3DBB295
:104098005B09DBB243F00103DBB2012B02D1494BD0
:1040A8001B681BE007F170034FF000721A6007F1FC
:1040B80070031B6893FAA3F207F16C031A6007F107
:1040C80068034FF000721A6007F168031B6893FADF
:1040D800A3F207F164031A603A4B5B6A07F16002C6
:1040E8004FF00071116007F16002126892FAA2F1B4
:1040F80007F15C02116007F15C021268B2FA82F201
:10410800D2B242F02002D2B202F01F02012101FA1B
:1041180002F21340002B9ED12A4B5B6823F47412E1
:104128003B1D1B68596A3B1D1B681B6A0B432549CD
:1041380013434B6007F158034FF080721A6007F180
:1041480058031B6893FAA3F207F154031A6007F1A6
:1041580054031B68B3FA83F3DBB203F1845303F50A
:1041680084139B001A4601231360FCF7BBFCC7F8B5
:10417800F80109E0FCF7B6FC0246D7F8F831D31A83
:10418800022B01D90323FCE007F150034FF0007222
:104198001A6007F150031B6893FAA3F207F14C0366
:1041A8001A6007F14C031B68B3FA83F3DBB25B09AF
:1041B800DBB243F00103DBB2012B05D1014B1B68D5
:1041C8001EE000BF0010024007F148034FF00072E4
:1041D8001A6007F148031B6893FAA3F207F1440336
:1041E8001A6007F140034FF000721A6007F14003AC
:1041F8001B6893FAA3F207F13C031A60634B5B6AEE
:1042080007F138024FF00071116007F138021268A7
:1042180092FAA2F107F13402116007F13402126830
:10422800B2FA82F2D2B242F02002D2B202F01F02F7
:10423800012101FA02F21340002B9BD0A0E007F104
:1042480030034FF080721A6007F130031B6893FA4D
:10425800A3F207F12C031A6007F12C031B68B3FAC9
:1042680083F3DBB203F1845303F584139B001A46EE
:1042780000231360FCF736FCC7F8F80109E0FCF7E7
:1042880031FC0246D7F8F831D31A022B01D903239F
:1042980077E007F128034FF000721A6007F128034E
:1042A8001B6893FAA3F207F124031A6007F12403A9
:1042B8001B68B3FA83F3DBB25B09DBB243F001039B
:1042C800DBB2012B02D1314B1B681BE007F1200345
:1042D8004FF000721A6007F120031B6893FAA3F2EB
:1042E80007F11C031A6007F118034FF000721A60F7
:1042F80007F118031B6893FAA3F207F114031A6075
:10430800224B5B6A07F110024FF00071116007F150
:104318001002126892FAA2F107F10C02116007F17B
:104328000C021268B2FA82F2D2B242F02002D2B281
:1043380002F01F02012101FA02F21340002B9ED164
:104348001EE03B1D1B68DB69012B01D1012318E02E
:104358000E4B5B68C7F8F431D7F8F43103F48032B8
:104368003B1D1B681B6A9A4208D1D7F8F43103F445
:1043780070123B1D1B685B6A9A4201D0012300E062
:104388000023184607F50077BD4680BD001002409F
:1043980080B59EB000AF7860396000237B677B688A
:1043A800002B01D1012362E1904B1B6803F0070346
:1043B8003A689A4210D98D4B1B6823F007028B4943
:1043C8003B6813430B60894B1B6803F007033A688B
:1043D8009A4201D001234AE17B681B6803F002037B
:1043E800002B08D0824B5B6823F0F0027B689B6847
:1043F8007F4913434B607B681B6803F00103002B64
:1044080000F0DC807B685B68012B3CD14FF4003303
:104418003B673B6F93FAA3F3FB66FB6EB3FA83F338
:10442800DBB25B09DBB243F00103DBB2012B02D143
:104438006F4B1B680FE04FF40033BB66BB6E93FAFB
:10444800A3F37B664FF400333B663B6E93FAA3F30A
:10445800FB65674B5B6A4FF40032BA65BA6D92FA36
:10446800A2F27A657A6DB2FA82F2D2B242F02002F2
:10447800D2B202F01F02012101FA02F21340002B0E
:104488007BD10123F3E07B685B68022B3CD14FF0C2
:1044980000733B653B6D93FAA3F3FB64FB6CB3FAC3
:1044A80083F3DBB25B09DBB243F00103DBB2012B20
:1044B80002D14F4B1B680FE04FF00073BB64BB6C1D
:1044C80093FAA3F37B644FF000733B643B6C93FA5D
:1044D800A3F3FB63464B5B6A4FF00072BA63BA6B97
:1044E80092FAA2F27A637A6BB2FA82F2D2B242F00C
:1044F8002002D2B202F01F02012101FA02F2134097
:10450800002B3AD10123B2E002233B633B6B93FAC1
:10451800A3F3FB62FB6AB3FA83F3DBB25B09DBB29A
:1045280043F00103DBB2012B02D1314B1B680DE0D4
:104538000223BB62BB6A93FAA3F37B6202233B624A
:104548003B6A93FAA3F3FB61294B5B6A0222BA61C7
:10455800BA6992FAA2F27A617A69B2FA82F2D2B2AE
:1045680042F02002D2B202F01F02012101FA02F247
:104578001340002B01D1012379E01D4B5B6823F028
:1045880003027B685B681A4913434B60FCF7AAFA7D
:1045980078670AE0FCF7A6FA02467B6FD31A41F265
:1045A8008832934201D9032361E0114B5B6803F021
:1045B8000C027B685B689B009A42EBD10B4B1B6833
:1045C80003F007033A689A4214D2084B1B6823F099
:1045D800070206493B6813430B60044B1B6803F052
:1045E80007033A689A4205D0012340E000200240C0
:1045F800001002407B681B6803F00403002B08D0FE
:104608001D4B5B6823F4E0627B68DB681A4913433F
:104618004B607B681B6803F00803002B09D0164B1E
:104628005B6823F460527B681B69DB001249134303
:104638004B6000F029F801460F4B5B6803F0F0036C
:10464800F0223A613A6992FAA2F2FA60FA68B2FA8A
:1046580082F2D2B2D340094AD35C21FA03F3084A62
:104668001360084B1B681846FCF7F8F90023184636
:104678007837BD4680BD00BF00100240889400080E
:10468800000000200400002080B48BB000AF00239D
:10469800FB610023BB6100237B6200237B61002355
:1046A8003B62294B5B68FB61FB6903F00C03042B3D
:1046B80002D0082B03D03CE0244B3B623CE0FB6972
:1046C80003F470134FF47012BA60BA6892FAA2F247
:1046D8007A607A68B2FA82F2D2B2D3401C4AD35CCA
:1046E8007B61194BDB6A03F00F030F223A613A69C9
:1046F80092FAA2F2FA60FA68B2FA82F2D2B2D3401F
:10470800144AD35CBB61FB6903F48033002B08D0E7
:104718000E4ABB69B2FBF3F27B6902FB03F37B62CF
:1047280004E07B690C4A02FB03F37B627B6A3B6211
:1047380002E0064B3B6200BF3B6A18462C37BD4679
:104748005DF8047B704700BF0010024000127A0039
:1047580098940008A894000800093D0080B592B01C
:1047680000AF786000233B640023FB63002387F8D5
:1047780047307B681B6803F48033002B00F0D4803B
:104788004E4BDB6903F08053002B0ED14B4BDB699A
:104798004A4A43F08053D361484BDB6903F08053A6
:1047A800BB60BB68012387F84730454B1B6803F49F
:1047B8008073002B18D1424B1B68414A43F4807325
:1047C8001360FCF78FF9386408E0FCF78BF90246B0
:1047D8003B6CD31A642B01D9032369E1384B1B685E
:1047E80003F48073002BF0D0344B1B6A03F440733E
:1047F800FB63FB6B002B00F084807B685B6803F431
:104808004073FA6B9A427CD02C4B1B6A23F440739A
:10481800FB634FF480333B633B6B93FAA3F3FB6278
:10482800FB6AB3FA83F3DBB21A46264B13449B00A8
:104838001A46012313604FF48033BB63BB6B93FAB2
:10484800A3F37B637B6BB3FA83F3DBB21A461D4B8E
:1048580013449B001A4600231360184AFB6B13622B
:10486800FB6B03F00103002B4BD0FCF73BF93864DA
:104878000AE0FCF737F902463B6CD31A41F288325A
:10488800934201D9032313E10223BB62BB6A93FA63
:10489800A3F37B6202233B623B6A93FAA3F3FB61B7
:1048A800FB69B3FA83F3DBB25B09DBB243F00203C3
:1048B800DBB2022B08D1014B1B6A0DE0001002404D
:1048C80000700040008190100223BB61BB6993FA1D
:1048D800A3F37B61784B5B6A02223A613A6992FAE8
:1048E800A2F2FA60FA68B2FA82F2D2B242F0400258
:1048F800D2B202F01F02012101FA02F21340002B8A
:10490800B7D06D4B1B6A23F440727B685B686A49B9
:1049180013430B6297F84730012B05D1664BDB69CF
:10492800654A23F08053D3617B681B6803F0010359
:10493800002B08D0604B1B6B23F003027B689B683D
:104948005D4913430B637B681B6803F00203002B6C
:1049580008D0594B1B6B23F440327B68DB685649FF
:1049680013430B637B681B6803F00403002B08D018
:10497800514B1B6B23F440227B681B694E49134340
:104988000B637B681B6803F02003002B08D04A4B9D
:104998001B6B23F010027B68DB69474913430B63E9
:1049A8007B681B6803F40033002B08D0424B5B681C
:1049B80023F480027B689B6B3F4913434B607B6801
:1049C8001B6803F04003002B08D03B4B1B6B23F004
:1049D80020027B681B6A384913430B637B681B689A
:1049E80003F00803002B08D0334B1B6B23F4401251
:1049F8007B685B69304913430B637B681B6803F072
:104A08001003002B08D02C4B1B6B23F440027B684F
:104A18009B69294913430B637B681B6803F4007384
:104A2800002B08D0244B5B6823F400027B68DB6A08
:104A3800214913434B607B681B6803F08003002BFC
:104A480008D01D4BDB6A23F4F8727B685B6A1A494D
:104A58001343CB627B681B6803F48073002B08D078
:104A6800154BDB6A23F478527B689B6A124913431F
:104A7800CB627B681B6803F48053002B08D00E4B75
:104A88001B6B23F480727B681B6B0B4913430B630E
:104A98007B681B6803F40053002B08D0064B1B6B84
:104AA80023F400727B685B6B034913430B63002399
:104AB80018464837BD4680BD0010024080B584B016
:104AC80000AF78607B68002B01D101239DE07B68F3
:104AD8005B6A002B08D17B685B68B3F5827F09D0DD
:104AE8007B680022DA6105E07B6800221A617B6836
:104AF80000225A617B6800229A627B6893F85D30D5
:104B0800DBB2002B06D17B68002283F85C20786832
:104B1800FBF794FE7B68022283F85D207B681B68A4
:104B28001A687B681B6822F040021A607B68DB68A1
:104B3800B3F5E06F02D90023FB6002E04FF4805325
:104B4800FB607B68DB68B3F5706F07D07B68DB6858
:104B5800B3F5E06F02D07B6800229A627B685B68DD
:104B680003F482727B689B6803F404431A437B68EE
:104B78001B6903F002031A437B685B6903F00103B6
:104B88001A437B689B6903F400731A437B68DB69EB
:104B980003F038031A437B681B6A03F0800342EA78
:104BA80003017B689B6A03F400527B681B680A4315
:104BB8001A607B689B691B0C03F004027B685B6AC4
:104BC80003F010031A437B685B6B03F008031A4376
:104BD8007B68DB6803F4706342EA0301FB6803F453
:104BE80080527B681B680A435A607B681B68DA69D5
:104BF8007B681B6822F40062DA617B6800221A660F
:104C08007B68012283F85D20002318461037BD46D3
:104C180080BD80B582B000AF78607B68002B01D181
:104C2800012349E07B6893F83D30DBB2002B06D1C5
:104C38007B68002283F83C207868FBF741FE7B689C
:104C4800022283F83D207B681A687B680433194682
:104C5800104600F061F97B68012283F848207B68E0
:104C6800012283F83E207B68012283F83F207B687D
:104C7800012283F840207B68012283F841207B6869
:104C8800012283F842207B68012283F843207B6855
:104C9800012283F844207B68012283F845207B6841
:104CA800012283F846207B68012283F847207B682D
:104CB800012283F83D20002318460837BD4680BDF1
:104CC80080B485B000AF78607B6893F83D30DBB284
:104CD800012B01D0012342E07B68022283F83D20AA
:104CE8007B681B68214A934218D07B681B68B3F124
:104CF800804F13D07B681B681D4A93420ED07B6897
:104D08001B681C4A934209D07B681B681A4A934265
:104D180004D07B681B68194A934215D17B681B68CD
:104D28009A68174B1340FB60FB68062B15D0FB688D
:104D3800B3F5803F11D07B681B681A687B681B68D5
:104D480042F001021A6008E07B681B681A687B68F9
:104D58001B6842F001021A6000E000BF00231846F9
:104D68001437BD465DF8047B704700BF002C014036
:104D780000040040000800400034014000400140A9
:104D88000700010080B584B000AF78603960002367
:104D9800FB737B6893F83C30012B01D10223B6E00A
:104DA8007B68012283F83C207B68022283F83D203F
:104DB8007B681B689B68BB60BB6823F4803323F067
:104DC8007703BB60BB6823F47F43BB607B681B68C9
:104DD800BA689A603B681B68B3F5005F3ED0B3F5CC
:104DE800005F00F28780B3F5805F00F08680B3F53E
:104DF800805F7FD8702B1AD0702B7BD8602B50D057
:104E0800602B77D8502B3CD0502B73D8402B58D0E0
:104E1800402B6FD8302B64D0302B6BD8202B60D030
:104E2800202B67D8002B5CD0102B5AD062E07B680F
:104E380018683B6899683B685A683B68DB6800F00B
:104E480075F97B681B689B68BB60BB6843F0770398
:104E5800BB607B681B68BA689A604FE07B6818681B
:104E68003B6899683B685A683B68DB6800F05EF904
:104E78007B681B689A687B681B6842F480429A606A
:104E88003CE07B6818683B6859683B68DB681A46F1
:104E980000F0D2F87B681B685021184600F02BF907
:104EA8002CE07B6818683B6859683B68DB681A46E1
:104EB80000F0F1F87B681B686021184600F01BF9C8
:104EC8001CE07B6818683B6859683B68DB681A46D1
:104ED80000F0B2F87B681B684021184600F00BF917
:104EE8000CE07B681A683B681B681946104600F09E
:104EF80002F903E00123FB7300E000BF7B68012295
:104F080083F83D207B68002283F83C20FB7B184611
:104F18001037BD4680BD000080B485B000AF786012
:104F280039607B681B68FB607B683C4A93420FD002
:104F38007B68B3F1804F0BD07B68394A934207D026
:104F48007B68384A934203D07B68374A934208D13A
:104F5800FB6823F07003FB603B685B68FA681343E7
:104F6800FB607B682D4A93421BD07B68B3F1804F6E
:104F780017D07B682A4A934213D07B68294A934208
:104F88000FD07B68284A93420BD07B68274A93420C
:104F980007D07B68264A934203D07B68254A934210
:104FA80008D1FB6823F44073FB603B68DB68FA6850
:104FB8001343FB60FB6823F080023B685B69134383
:104FC800FB607B68FA681A603B689A687B68DA62FB
:104FD8003B681A687B689A627B68104A93420FD0D4
:104FE8007B68114A93420BD07B68104A934207D0E2
:104FF8007B680F4A934203D07B680E4A934203D1E1
:105008003B681A697B681A637B6801225A6100BF92
:105018001437BD465DF8047B704700BF002C014083
:1050280000040040000800400034014000400140F6
:10503800004401400048014080B487B000AFF860E8
:10504800B9607A60FB681B6A7B61FB681B6A23F0A6
:105058000102FB681A62FB689B693B613B6923F0AC
:10506800F0033B617B681B013A6913433B617B6931
:1050780023F00A037B617A69BB6813437B61FB6891
:105088003A699A61FB687A691A6200BF1C37BD46A3
:105098005DF8047B704780B487B000AFF860B960F2
:1050A8007A60FB681B6A23F01002FB681A62FB68CF
:1050B8009B697B61FB681B6A3B617B6923F47043D6
:1050C8007B617B681B037A6913437B613B6923F02F
:1050D800A0033B61BB681B013A6913433B61FB6852
:1050E8007A699A61FB683A691A6200BF1C37BD4643
:1050F8005DF8047B704780B485B000AF7860396094
:105108007B689B68FB60FB6823F07003FB603A6870
:10511800FB68134343F00703FB607B68FA689A60F7
:1051280000BF1437BD465DF8047B704780B487B074
:1051380000AFF860B9607A603B60FB689B687B6190
:105148007B6923F47F437B613B681A027B681A43BF
:10515800BB6813437A6913437B61FB687A699A6079
:1051680000BF1C37BD465DF8047B704780B485B02E
:1051780000AF786039607B6893F83C30012B01D12F
:10518800022363E07B68012283F83C207B680222CB
:1051980083F83D207B681B685B68FB607B681B6845
:1051A8009B68BB607B681B682B4A934204D07B6872
:1051B8001B682A4A934208D1FB6823F47003FB60FA
:1051C8003B685B68FA681343FB60FB6823F0700375
:1051D800FB603B681B68FA681343FB607B681B68CD
:1051E800FA685A607B681B681B4A934218D07B6830
:1051F8001B68B3F1804F13D07B681B68184A934231
:105208000ED07B681B68174A934209D07B681B68DD
:10521800124A934204D07B681B68134A93420CD10C
:10522800BB6823F08003BB603B689B68BA68134384
:10523800BB607B681B68BA689A607B68012283F848
:105248003D207B68002283F83C2000231846143751
:10525800BD465DF8047B7047002C014000340140D6
:1052680000040040000800400040014080B485B0C0
:1052780000AF78607B680022A3F844204FF43F43D6
:10528800FB60FB689AB27B68A3F8402000231846AD
:105298001437BD465DF8047B704780B485B000AF15
:1052A80078604FF43F43FB607B68B3F840309AB2B4
:1052B800FB689BB2DB439BB213409AB27B68A3F8AE
:1052C8004020002318461437BD465DF8047B70471C
:1052D80084B080B483B000AF786007F1140080E830
:1052E8000E007B680122A3F840207B680022A3F807
:1052F80040207B680022A3F844207B680022A3F8A2
:105308005020002318460C37BD465DF8047B04B0D6
:105318007047000080B49DB000AF7860396000230A
:1053280087F86F307A683B681B789B0013441B88AA
:105338009BB223F4EC4323F07003A7F86C303B686E
:10534800DB78032B1FD801A252F823F0655300081D
:10535800815300089753000873530008B7F86C305E
:1053680043F40073A7F86C3012E0B7F86C3043F4DC
:10537800C063A7F86C300BE0B7F86C3043F4806377
:10538800A7F86C3004E0012387F86F3000E000BF15
:105398007A683B681B789B001A44B7F86C3043F076
:1053A8007F4343F47F0343F4004343F080039BB2FD
:1053B80013807A683B681B789B0013441B889BB258
:1053C8001BB223F4E04323F070031AB23B681B7846
:1053D8001BB213431BB2A7F866307A683B681B7888
:1053E8009B001A44B7F8663043F07F4343F47F03C9
:1053F80043F4004343F080039BB213803B681B7B5C
:10540800002B40F049813B685B78002B00F08480DA
:105418007B68BB617B68B3F850309BB21A46BB69A6
:105428001344BB613B681B781A01BB69134403F53D
:1054380080637B613B68DB885B089BB25B009AB248
:105448007B691A807A683B681B789B0013441B8829
:105458007B827B8A03F04003002B1BD07A683B6871
:105468001B789B0013441B889BB223F4E04323F072
:1054780070033B827A683B681B789B001A443B8A1E
:1054880043F07F4343F47F0343F4004343F0C003F6
:105498009BB213803B68DB78012B20D07A683B688D
:1054A8001B789B0013441B889BB223F4E04323F032
:1054B8004003BB81BB8983F02003BB817A683B68CA
:1054C8001B789B001A44BB8943F07F4343F47F0356
:1054D80043F4004343F080039BB21380A6E27A684A
:1054E8003B681B789B0013441B889BB223F4E04362
:1054F80023F04003FB817A683B681B789B001A44C1
:10550800FB8943F07F4343F47F0343F4004343F0B4
:1055180080039BB2138089E27B683B637B68B3F8A6
:1055280050309BB21A463B6B13443B633B681B7875
:105538001A013B6B134403F58163FB623B68DB880C
:105548005B089BB25B009AB2FB6A1A807B68BB62FD
:105558007B68B3F850309BB21A46BB6A1344BB62EF
:105568003B681B781A01BB6A134403F20C437B6245
:105578003B681B69002B12D17B6A1B889BB223F402
:10558800F8439AB27B6A1A807B6A1B889BB26FEADF
:1055980043436FEA53439AB27B6A1A802FE03B6811
:1055A8001B693E2B13D83B681B695B08BB663B68CD
:1055B8001B6903F00103002B02D0BB6E0133BB66ED
:1055C800BB6E9BB29B029AB27B6A1A8017E03B685B
:1055D8001B695B09BB663B681B6903F01F03002B53
:1055E80002D1BB6E013BBB66BB6E9BB29B029BB2FA
:1055F8006FEA43436FEA53439AB27B6A1A807A6828
:105608003B681B789B0013441B887B847B8C03F4CA
:105618008043002B1BD07A683B681B789B0013449F
:105628001B889BB223F4E04323F070033B847A6821
:105638003B681B789B001A443B8C43F07F4343F440
:105648007F0343F4404343F080039BB213807A689E
:105658003B681B789B0013441B889BB223F4804350
:1056680023F07003FB83FB8B83F48053FB83FB8B5A
:1056780083F40053FB837A683B681B789B001A44C9
:10568800FB8B43F07F4343F47F0343F4004343F031
:1056980080039BB21380C9E13B68DB78022B1ED1E3
:1056A8007A683B681B789B0013441B889BB223F4E1
:1056B800E04323F07003A7F862307A683B681B78F0
:1056C8009B001A44B7F8623043F07F4343F47F03EA
:1056D80043F4014343F080039BB213801DE07A68D2
:1056E8003B681B789B0013441B889BB223F4E2435E
:1056F80023F07003A7F864307A683B681B789B0036
:105708001A44B7F8643043F07F4343F47F0343F40B
:10571800004343F080039BB213807B68FB657B6882
:10572800B3F850309BB21A46FB6D1344FB653B68D7
:105738001B781A01FB6D134403F58063BB653B6856
:105748001B895B089BB25B009AB2BB6D1A807B68B1
:105758007B657B68B3F850309BB21A467B6D134467
:105768007B653B681B781A017B6D134403F58163E5
:105778003B653B685B895B089BB25B009AB23B6DFB
:105788001A803B685B78002B40F093807A683B680E
:105798001B789B0013441B88A7F84030B7F84030AB
:1057A80003F48043002B1BD07A683B681B789B006E
:1057B80013441B889BB223F4E04323F07003FB8758
:1057C8007A683B681B789B001A44FB8F43F07F4341
:1057D80043F47F0343F4404343F080039BB21380B8
:1057E8007A683B681B789B0013441B88BB87BB8F78
:1057F80003F04003002B1BD07A683B681B789B00A2
:1058080013441B889BB223F4E04323F070037B8787
:105818007A683B681B789B001A447B8F43F07F4370
:1058280043F47F0343F4004343F0C0039BB2138067
:105838007A683B681B789B0013441B889BB223F44F
:10584800804323F070033B873B8F83F480533B876F
:105858003B8F83F400533B877A683B681B789B0037
:105868001A443B8F43F07F4343F47F0343F40043E0
:1058780043F080039BB213807A683B681B789B00D7
:1058880013441B889BB223F4E04323F04003FB86B8
:105898007A683B681B789B001A44FB8E43F07F4371
:1058A80043F47F0343F4004343F080039BB2138027
:1058B800BCE07A683B681B789B0013441B88A7F8F8
:1058C8004E30B7F84E3003F48043002B1DD07A6871
:1058D8003B681B789B0013441B889BB223F4E0436E
:1058E80023F07003A7F84C307A683B681B789B005C
:1058F8001A44B7F84C3043F07F4343F47F0343F432
:10590800404343F080039BB213807A683B681B785E
:105918009B0013441B88A7F84A30B7F84A3003F0B5
:105928004003002B1DD07A683B681B789B0013440A
:105938001B889BB223F4E04323F07003A7F8483098
:105948007A683B681B789B001A44B7F8483043F0E4
:105958007F4343F47F0343F4004343F0C0039BB207
:1059680013803B68DB78012B24D07A683B681B786E
:105978009B0013441B889BB223F4E04323F04003AD
:10598800A7F84430B7F8443083F02003A7F8443030
:105998007A683B681B789B001A44B7F8443043F098
:1059A8007F4343F47F0343F4004343F080039BB2F7
:1059B80013801DE07A683B681B789B0013441B88A2
:1059C8009BB223F4E04323F04003A7F846307A68FB
:1059D8003B681B789B001A44B7F8463043F07F4376
:1059E80043F47F0343F4004343F080039BB21380E6
:1059F8007A683B681B789B0013441B889BB223F48E
:105A0800804323F07003A7F842307A683B681B781C
:105A18009B001A44B7F8423043F07F4343F47F03B6
:105A280043F4004343F080039BB2138097F86F3030
:105A380018467437BD465DF8047B704780B48DB056
:105A480000AF786039603B681B7B002B40F08E808C
:105A58003B685B78002B44D07A683B681B789B00D6
:105A680013441B88BB81BB8903F04003002B1BD068
:105A78007A683B681B789B0013441B889BB223F40D
:105A8800E04323F070037B817A683B681B789B00B6
:105A98001A447B8943F07F4343F47F0343F4004374
:105AA80043F0C0039BB213807A683B681B789B0065
:105AB80013441B889BB223F4E04323F040033B814B
:105AC8007A683B681B789B001A443B8943F07F4304
